:020000040800F2
:10000000001100200D090008CD050008F9080008BE
:10001000F9080008F9080008F908000800000000C5
:10002000000000000000000000000000F9090008C6
:10003000F9080008000000009509000809180008E8
:10004000890B0008890B0008890B0008890B000840
:10005000890B0008890B0008890B0008890B000830
:10006000890B0008890B0008890B0008890B000820
:10007000890B0008890B0008890B0008890B000810
:10008000890B0008890B0008890B0008890B000800
:10009000890B0008890B0008890B0008890B0008F0
:1000A000890B0008890B0008890B0008890B0008E0
:1000B000890B0008890B0008890B0008890B0008D0
:1000C000890B0008890B0008890B0008890B0008C0
:1000D000890B0008890B0008890B0008890B0008B0
:1000E000890B0008890B0008890B0008890B0008A0
:1000F000890B0008890B0008890B0008890B000890
:10010000890B0008890B0008890B0008890B00087F
:10011000890B0008890B0008890B0008890B00086F
:10012000890B0008890B0008890B0008890B00085F
:10013000890B0008890B0008890B0008890B00084F
:10014000890B0008890B0008890B0008890B00083F
:10015000890B0008890B0008890B0008890B00082F
:10016000890B0008890B0008890B0008890B00081F
:10017000890B0008890B0008890B0008890B00080F
:10018000890B0008890B0008890B0008890B0008FF
:04019000890B0008CF
:1001940053B94AB9002908BF00281CBF4FF0FF31EA
:1001A4004FF0FF3000F00CB8ADF1080C6DE904CE4F
:1001B40000F008F8DDF804E0DDE9022304B070473C
:1001C400704700BF2DE9F04786468C460846089ED6
:1001D400154674461946002B40F0C2808542B2FA97
:1001E40082F245D94AB1C2F1200300FA02FC2EFA88
:1001F40003F3954043EA0C0C94404FEA154EA8B221
:10020400BCFBFEF8230C0EFB18CC08FB00F943EAF8
:100214000C43994528D9EB1808F1FF3704D29945C6
:1002240002D9A8F102072B44A3EB0903A4B2B3FB40
:10023400FEFC0EFB1C330CFB00F044EA0344A0421A
:1002440014D92C190CF1FF3304D2A04202D9ACF119
:1002540002032C44241A43EA07401EB1D44000236D
:1002640034607360BDE8F0874746DDE76346F1E735
:1002740092BB431B01214FEA154EAFB2B3FBFEFC08
:10028400200C0EFB1C330CFB07F840EA0343984593
:1002940062D9EB180CF1FF3004D2984502D9ACF1C5
:1002A40002002B44A3EB0803A4B2B3FBFEFC0EFB39
:1002B4001C330CFB07F744EA0344A7424ED92C191C
:1002C4000CF1FF3304D2A74202D9ACF102032C444F
:1002D400E41B43EA0040C0E7C2F1200320FA03F123
:1002E400954090402EFA03F303434FEA154EAFB204
:1002F400B1FBFEFC0EFB1C10190C0CFB07F841EAC9
:100304000041884504FA02F422D969180CF1FF303F
:1003140004D2884502D9ACF102002944A1EB0801BA
:100324009BB2B1FBFEFC0EFB1C110CFB07F743EA6E
:1003340001439F420ED9EB180CF1FF3104D29F42C6
:1003440002D9ACF102012B44DB1B41EA004192E7E4
:100354006046E3E76146F7E76046A3E76346B7E72D
:10036400834206D916B9002108467BE7C6E900E0B6
:10037400F9E7B3FA83F78FB9834201D3724508D8FA
:10038400BEEB020460EB030301209C461EB900216E
:1003940068E73846FAE7C6E9004CF8E7C7F1200CED
:1003A400BB4022FA0CF41C432EFA0CF120FA0CF395
:1003B400B84001434FEA14490EFA07F5B3FBF9F8C4
:1003C4001FFA84FE09FB18300B0C08FB0EFA43EAF3
:1003D40000439A4502FA07F240D9E31808F1FF30C6
:1003E40004D29A4502D9A8F102002344A3EB0A03DC
:1003F40089B2B3FBF9F809FB183308FB0EFE41EA96
:1004040003418E452CD9611808F1FF3304D28E457F
:1004140002D9A8F10203214443EA0040A0FB029858
:10042400A1EB0E014145CE46434602D306D14D45CC
:1004340004D2B9EB020E68EB04030138002EA6D0F7
:10044400B5EB0E0261EB030101FA0CFC22FA07F38F
:100454004CEA0303F940C6E9003198E74046C5E792
:100464004346D9E7024883684FF400515B69184753
:10047400A035000870B51B4802F0C9FE20B91A481F
:1004840002F0BBFA002070BD184C204602F0BFFEFB
:1004940008B91748F4E717484FF4B01102F023FAEB
:1004A40015484FF4803102F01EFAA568AE696EB1AA
:1004B40023691B6813F0010F14BF4FF000734FF052
:1004C40080634FF0A07200212046B0470B490C4BCB
:1004D4004B60EB6901228A60002BD3D00348984714
:1004E400D0E700BFA03500089A3A0008C8350008D4
:1004F400BA3A0008A8380008A0380008B001002063
:1005040069040008014B1B68184700BF0000002065
:1005140030B585B004460D4610220021684602F02D
:1005240097FF02238DF802302A46044B019321469B
:10053400684601F07BFF05B030BD00BF0905000827
:10054400014B1860704700BF0000002080B50546CD
:100554000E461746984601F01DFE034602F080FF42
:10056400DFF81890044649F80030424630463946D0
:10057400A84754F8090000F0DDF900BF08000000A6
:10058400064B1A6842F400721A601A6842F48062D8
:100594001A60034B034A1A6000207047003C024073
:1005A4004C0000200024F400034A536823F00203A3
:1005B40053600020704700BF002004E0014B03603B
:1005C40000207047B038000808B5034B1B689847F3
:1005D400BDE8084000F034B80400002030BFFFF745
:1005E400FDBF00BF114B124A2DE9F041D518DFF8C9
:1005F4004480013DB5FBF3F55D430F4B08EB030469
:10060400013CB4FBF3F403FB04540E1B07460B49F3
:10061400304602F00FFF701942460021083E02F0F6
:1006240017FF3E6704F10800BDE8F08101000000F7
:1006340000000000040000000400000098380008D6
:10064400044B99685869884203D003494FF080529B
:100654000A607047E802002004ED00E070B5264B04
:1006640015469A6A12F0100F9A6A14BF11241024C6
:1006740012F0080F9A6A18BF1224920706460AD588
:10068400586B9A6A140634D519B19A6A22F080021A
:100694009A62132401E06FF01500174B9A6A12F066
:1006A400010F9A6A18BF142412F0200F9A6A18BF17
:1006B4001524D20602D49B6A9B070AD50E4B5B68AD
:1006C400190506D5314600F00BFA10B180F30988FC
:1006D4000224094B9A6A920642BF5A6A22F40052D3
:1006E4005A629A6A42F0FF029A6200232B702046F3
:1006F40070BD6FF01500CCE700ED00E0134B9A6A73
:1007040012F0007F9A6A14BF1E201D2012F0807F11
:100714009A6A18BF1F2012F4002F9A6A18BF21206A
:1007240012F4802F9A6A18BF222012F4003F9A6AAA
:1007340018BF232012F4803F9A6A6FEA02426FEADC
:1007440012429A6218BF2420704700BF00ED00E0F7
:1007540010B5194B0246986A9C6A10F4805F14BF66
:100764001720162014F4006F9C6A18BF1820A405E3
:1007740009D5986B986A000404D51AB19A6A22F4D0
:1007840000429A6219200C4B9A6A12F4806F9A6A9A
:1007940018BF1A20D2050CD49B6A13F4005F18BF4B
:1007A4001C20054A936A43F47F43936200230B7031
:1007B40010BD1B20F5E700BF00ED00E0F0B5484B8D
:1007C4005B688BB00446C3F30803002585F31188E6
:1007D400BFF36F8F02F07F40B0F17F4F11D102F071
:1007E4000C0008280DD010074CBF0C460125002230
:1007F400033B8DF80720032B05D8DFE803F02463BF
:1008040067602C46F3E700239DF80720CAB902AEBF
:1008140004F1200720686168324603C20834BC42F0
:100824001646F7D1099A002D54D0C2F3080121B914
:100834006FEA52226FEA4222099202A9184602F094
:10084400EAF80BB0F0BD264BDA6A9107DBD4DA6A1A
:10085400002AD8DBDA6A5200D5D55A69A16942F474
:1008640080725A61BFF34F8FBFF36F8F5A6931F8AB
:10087400021C22F480725A61BFF34F8FBFF36F8F53
:100884004DF6027291420AD09A6AD2B24AB10DF17F
:10089400070201212046FFF7E1FE0346B4E723687F
:1008A400B2E79A6A12F47F4F05D00DF107010120D7
:1008B400FFF74EFFF1E79B6AB3F5803FA3D3FFF741
:1008C4001DFFEAE70DF107020021E3E70DF107013F
:1008D4000020EDE722F4FF7222F00102ACE700BF32
:1008E40000ED00E0024A536943F01003536170477E
:1008F40000ED00E0EFF30880EFF3098101B57246E3
:10090400FFF75CFF01BD00BF102080F31188084889
:100914004FF40461401880F30988EFF31480022136
:10092400084380F31488BFF36F8F00F099F8000038
:1009340040030020084B9B6883420BD1EFF30583EF
:1009440043B1064B5A6842F080525A605A6A22F404
:1009540000425A6202F0C8BCE802002000ED00E048
:10096400094A93686FF00A019967084958674B6808
:1009740043F080534B60002383F31188BFF36F8FE0
:100984009368986F704700BFE802002000ED00E014
:1009940015498A684FF030001044EFF3098C80E861
:1009A400F01F102080F31288BFF36F8F0F4F4FF0AA
:1009B40000664A698A603E604FF07004141920682A
:1009C4000B4C2060506F0023536780F3118804B5EB
:1009D400104600F0F7F8BDE8044002F1300090E85A
:1009E400F01F8CF309887047E802002004ED00E052
:1009F400BC0100201EF0040F0CBFEFF30880EFF3DE
:100A04000980816911F8021C0229FFD001B502F0A6
:100A140004F801BD40B2002807DB044A4109012360
:100A240000F01F00834042F82130704700E100E0ED
:100A340040B20028A8BF00F1604001F10101B8BF35
:100A4400064B4FEA0111ACBF00F5614000F00F0006
:100A5400C9B2B4BF195480F80013704714ED00E014
:100A64000F4A08B50F4B22F07F029A60BFF34F8FF5
:100A7400BFF36F8FD3F8882022F47002C3F8882064
:100A8400EFF3148323F0040383F31488BFF36F8F0D
:100A940001F050F801F084FB00F068F801F09CF8D4
:100AA4000000000800ED00E042F8203C009B42F802
:100AB4001C3C0A49019B42F8183C029B42F8143C36
:100AC40021F001014FF0807342F8043C42F8081C05
:100AD4000023203A02654367704700BF51050008B0
:100AE400094A0346906870B113F1160F006E05D0E1
:100AF400A0F140029A4205D8834203D2814228BF22
:100B04000020704700207047E802002008B5144612
:100B14000A4A0B4B9060026F1A600D4600F052F8BF
:100B2400204685F30988002163B681F31188BFF359
:100B34006F8F00220023FFF709FD00BFE8020020A9
:100B4400BC010020014910220A60704710ED00E04A
:100B540072B6404080F31188BFF36F8FBFF34F8F9D
:100B640030BF62B6BFF36F8F704700BF04480023E5
:100B74001021C2180133552B82F80013F9D17047A4
:100B840000E100E001B5EFF30580A0F110004FEAA9
:100B9400C0000449014409C99847BDE8014002491D
:100BA40008470000F035000845060008024B034AD8
:100BB4000348012100F076B8000001200000002065
:100BC400B0380008026E054B403A1A60044A4021CE
:100BD400C3E901121846012100F06EB8C0010020DB
:100BE40000000B15084AC2F898000B6823F01F0395
:100BF400034343F01003C2F89C308B6843F00103B5
:100C0400C2F8A030704700BF00ED00E02DE9F043CA
:100C1400DFF8608085B00E461F4604464FF0000999
:100C2400B14523DA6068D8B13FB1411E08421BD1F7
:100C34001F2819D92368194216D12368019301F09A
:100C4400F4FEA36803430393D8F89050C5F3072533
:100C5400D0B2013DA84207D801A9FFF7C3FF421C47
:100C640009F101090C34DBE76FF01502104605B0F9
:100C7400BDE8F08300ED00E0044B0522C3F89420A6
:100C8400BFF34F8FBFF36F8F704700BF00ED00E0DD
:100C9400BFF35F8F024B0022C3F89420704700BF5C
:100CA40000ED00E010B5034C01232278FFF7AEFFFE
:100CB400207010BD1803002008B50B4A00231278D9
:100CC400FFF7A4FF10F1160F07D0084A0021D2F84D
:100CD4009030C3F30723984200DB08BDC2F89800A4
:100CE400C2F8A0100130F2E71803002000ED00E084
:100CF4002DE9FF41524B534CD3F890302568C3F390
:100D040007239D4200F29980FFF7C2FF00200C26C2
:100D1400854218D14C4C4D4F25706846FFF74EFC68
:100D2400DFF81C8106460025AE4213D123784449DE
:100D34000020D1F89020C2F30722934277DBFFF71B
:100D44009BFF00201CE0616806FB0011FFF74AFFCF
:100D54000130DDE7009800EB05114FEA051CCB6874
:100D64003B40B3F5000F50D00DD8B3F5001F36D07B
:100D7400B3F5800F3ED0B3F5801F13D06FF015008C
:100D840004B0BDE8F081B3F1807F47D0B3F1007FB8
:100D9400F4D150F80C3088684A6801F046FE40F4FB
:100DA400802009E050F80C3088684A6801F03DFE64
:100DB40040F0885040F43020CDE901230390D8F866
:100DC40090302078C3F30723013B9842D6D801A979
:100DD400FFF708FF2378013323700135A4E750F8A7
:100DE4000C3088684A6801F020FE40F0885040F4D6
:100DF4000020E1E750F80C3088684A6801F015FEDD
:100E040040F0E06040F40030D6E750F80C308868D9
:100E14004A6801F00AFE40F08270CDE750F80C30C9
:100E240088684A6801F001FE40F08870C4E7C1F8A0
:100E34009830C1F8A00001337BE74FF0FF309FE703
:100E440000ED00E0BC380008180300200000F0FFAB
:100E540008B5024B1B689847002008BDCC01002050
:100E6400034B044A1860937843F00203937070476D
:100E7400CC0100200800002008B50649064821F0EE
:100E84000701C1F1005202F5803201F077FD002024
:100E940008BD00BF47110020D00100202DE9F0411A
:100EA4000F4E104F054600244FF001082B7853FADB
:100EB40084F01F280DDC726908FA00F333EA020299
:100EC40007D1736157F830301BB107EBC00251688A
:100ED40098476A780134E3B29A42E7D2BDE8F081D8
:100EE400003C0140DC010020044B18440023013382
:100EF400994200F8012BFADC704700BF580000202B
:100F040010B4064B064902460C6818560123934058
:100F140023430B6010BCFFF77DBD00BF58000020C9
:100F2400003C01401F2806DC034901220B68824073
:100F340023EA02030B607047003C014003292AD8CE
:100F4400DFE801F0020E141F134B0122996882405E
:100F540021EA02019960D96821EA0202DA60704745
:100F64000D4B0122996882401143F3E70A4B012299
:100F7400D96882401143D960996821EA02029A60D3
:100F84007047012303FA00F0034B9A6802439A6006
:100F9400DA681043D8607047003C014030B50A4B12
:100FA40053F830408C4204D103EBC0056D68954280
:100FB40005D034B943F8301003EBC0035A60002065
:100FC40030BD6FF00F00FBE7DC010020034B002273
:100FD40043F8302003EBC0035A607047DC01002063
:100FE40010B5204B18680B68442B14461DD82F2BC2
:100FF40005D85A1E042A0DD96FF0850014E0A3F118
:10100400300101228A4018490A420BD1402BF3D106
:10101400400807E0023B032B04D8DFE803F0021F7B
:10102400091300202060002010BDA82BFAD0E3E7AC
:1010340000F0A8F81923B0FBF3F04FF4A873584359
:101044008008EFE700F09EF81923B0FBF3F04FF4AB
:10105400A87358430723B0FBF3F0E3E74FF4FA40D7
:10106400E0E700BF4C00002011011000F8B5414C2E
:10107400414F00F09FF800F08BFCA3683F4AC3F394
:1010840003131578D35C47FA05F520FA03F6AE424C
:1010940002D2284600F0AAFC236823F480232360AC
:1010A400236843F480332360324B1A689203FCD5DF
:1010B4005A6F42F001025A675A6F9407FCD59A6836
:1010C40002F00C02082A17D11A68900707D41A688C
:1010D40042F001021A60274A13689907FCD5254B90
:1010E4009A6822F003029A609A6812F00C0FFBD1FE
:1010F4009A6822F0F0029A601E4C236823F08073F1
:101104002360636823F4403343F48033636063688B
:1011140023F0706343F0E063636000F037F8236802
:1011240043F08073236023689B01FCD5A36823F0FC
:10113400F003A360A36823F0030343F00203A36056
:101144000C4CA36803F00C03082BFAD1AE4202D373
:10115400284600F04BFC0A4B1F60A36823F4E053BD
:1011640043F48053A360A36823F46043A360002086
:10117400F8BD00BF0038024000BD0105B63B0008C1
:101184004C0000200048704740787D01064A07491A
:1011940053681940064B0B435360536823F44033A0
:1011A40043F4803353607047003802400080BFFF2F
:1011B40019544000064B1A6C42F080521A641B6C9E
:1011C40082B003F080530193019B02B0704700BFCB
:1011D4000038024008B5074802F019F838B106484B
:1011E400FFF73EFE0448FFF7ABF9002008BD6FF09F
:1011F4001200FBE7DC350008011200080A2838B5A4
:10120400074D044604D1AB680D215B682846984716
:10121400AB6803485B68E1B29847204638BD00BF1D
:10122400DC35000838B5036904465860084D284683
:1012340001F0EDFF40B16168AB680C311B682846D2
:10124400984700EAE07038BD6FF01200FBE700BF7A
:1012540000350008F7B51746B7F5001F4668026960
:101264000C461D4624D101F00302043292000F23E0
:10127400934043EA9103DAB23349023251F822200F
:10128400190C02EA134391FAA1F2B2FA82F2D340A2
:10129400B2689A4209D12046FFF744FE2046FFF780
:1012A40095FE00212046FFF749FE002003B0F0BD63
:1012B400B7F5800F41D025492046FFF76FFE00287F
:1012C4003ED1234AB66892E803006B4683E80300E4
:1012D40020488268194612689047C0B904F0030395
:1012E40004339B000F229A4042EA9402D3B29B003B
:1012F40003F1804303F59C33110C986820EA1240F3
:1013040091FAA1F2B2FA82F2964006439E60B5F1D8
:10131400806F0ED0B5F1C06F0DD005F17E435942F8
:10132400594149002046FFF709FE2046FFF7E8FD32
:10133400BBE70121F6E70321F4E76FF08500B5E789
:101344006FF00F00B2E700BF00380140D12D000854
:1013540098380008003500082DE9F0471E4F044670
:1013640000EBC1060025B44201D1002014E020683E
:10137400C30600F01F0911D4656845F02005C0F3C9
:10138400471AC0F343200A2823D857F82080B8F11D
:10139400000F0DD16FF01200BDE8F087B9F1100F06
:1013A40004D0B9F1110FEAD16568E8E73025E6E722
:1013B400404601F02CFF0028ECD04B462A460AF0A8
:1013C4000F01404601F019FD002804F10804CADAAF
:1013D400E2E76FF01500DFE7A03900084268116802
:1013E40001F1140353E8003F43F0010301F1140C2D
:1013F4004CE800300028F3D113680E498B4207D023
:10140400A1F54C418B4203D001F550418B4203D1ED
:10141400196941F040011961126802F10C0353E8A3
:10142400003F43F4807302F10C0040E800310029CE
:10143400F3D17047001001404268116801F11403B0
:1014440053E8003F23F0010301F1140C4CE8003091
:101454000028F3D113680E498B4207D0A1F54C4103
:101464008B4203D001F550418B4203D1196921F01D
:1014740040011961126802F10C0353E8003F23F4A0
:10148400807302F10C0040E800310029F3D1704769
:1014940000100140F8B503690C465E682379416881
:1014A400012B34D09A1E55425541AD026279022A6D
:1014B4009CBF354F37F812C0A27988BF4FF4005C47
:1014C400042A27D0003B18BF01231B03E279012A19
:1014D4000A680CBF4FF440770027A642D1681CD19C
:1014E40021F4B05129430B43D360136923F44053CF
:1014F40043EA0C03136143681A68536923F4407385
:101504003B4353613168BDE8F84001F090BD4FF4AE
:10151400C065CBE74FF48053D8E701F4C0618D4236
:101524001FBFD16821F4C0612943D16042681168AA
:101534000A6902F4405294451FBF0A6922F44052DA
:1015440042EA0C020A6142681168CA6802F48052D5
:1015540093421FBFCA6822F480521343CB6043688E
:101564001A68536903F440739F421FBF536923F4FD
:1015740040733B43536121683368994203D001F0BF
:1015840056FD23683360F8BD943A00082DE9F04114
:1015940003694768D3F804800B790C46012B497919
:1015A400A57936D102294FD9042D4AD04FF480565B
:1015B4004FF4C06203238B4243D1002E7CD0002A17
:1015C40014BF03220422AA423BD1E3796BB1012B5D
:1015D40037D13B683B4A934207D0A2F54C42934231
:1015E40003D002F5504293422BD13A68D36823F4D6
:1015F4000053D3602146FFF74DFF3A68D36843F4A4
:101604000053D36094E8030088E803000020BDE899
:10161400F081022B08D1022921D9042D11D04FF4D5
:1016240080624FF48056C5E702290A461FD9042D6B
:1016340004D133B94FF480561A46BBE763BB032980
:10164400C1D06FF08500E2E71F4A042D32F811C0C3
:10165400F7D04FF4C062033B012B10D8F1E71A4ACC
:10166400042D32F811C0ECD04FF48062F3E7164A2F
:10167400042D32F811C016D1002BE2D11A464FF4D2
:101684008056BCF5805F13D0BCF5405F12D0BCF12E
:10169400000F8FD101238EE7033B012BD1D9002208
:1016A400BFE70022D7E7002BFBD11A461E46E8E726
:1016B400002380E702237EE7002A14BF02220322CC
:1016C40081E700BF00100140943A0008F7B50569AE
:1016D400466804462948286001F099FD18B96FF05E
:1016E400120003B0F0BD2868F16883681B6898474E
:1016F4000028F6DB306A01AA002101F096FB0028DD
:10170400EFDB019B002219791868FFF725FE0028FA
:10171400E7DB656823692A685F68D36823F40053AC
:10172400D360686801F073FD0028D8D0D5E90101C1
:101734008368DB6803B198472A6802F10C0353E815
:10174400003F43F00C0302F10C0040E80031002993
:10175400F3D139462046FFF79DFE2B7D23B12A683D
:10176400536943F0080353612A68D36843F4005370
:10177400D3602046736A98470020B2E7003500081A
:1017840010B54FF0E0230F499C691A6908689B69FA
:101794000D4902F4803234B993B903464AB90A6850
:1017A4001044C01A10BD002B08BF03460AB9A34257
:1017B400F5D90A6802440A604FF0E0221269EEE7A4
:1017C4000446F3E7E0020020DC0200200A4B10226A
:1017D40083F82320094B42F2D0021A60084B002000
:1017E40018604FF0E02342F2CF025A6198611A69FF
:1017F40042F007021A61704700ED00E0E0020020A9
:10180400DC02002010B5FFF7BBFF104B1049D3E9F1
:1018140000420868001942F10002C3E900020D4ABF
:1018240000230B60D2E9004142F2D003001BB0FB5D
:10183400F3F043431B1941F10001C2E9003100F008
:1018440085FDBDE81040FEF7FBBE00BF8800002008
:10185400DC020020800000202DE9F041DFF8E08068
:1018640099B1421C0BD14FF0E022136923F001031C
:1018740013614FF07F43C8F80030BDE8F081D8F819
:101884000060012807DC00270BE0431CD8F8006047
:10189400F7D140F2CC7040F2CD739842A8BF1846FD
:1018A400471E4FF01003EFF3118583F31288BFF343
:1018B4006F8FFFF765FF234C4FF0E0239969D4E95C
:1018C4000023801843F10003C4E900031E4B0022E7
:1018D4001A601E4B1A68831A2ED442F2D00C0CFBE9
:1018E400073303F503530F33B3FBFCF7131A0CFB55
:1018F4000733B3F5806F164A38BF4FF480639342C1
:1019040028BF13464FF0E022C8F80030013B90692D
:101914005361002393618142A1EB0003D4E90012D7
:1019240038BF9B195B1842F10002C4E9003285F309
:101934001188BFF36F8FA0E74FF48063E2E700BF25
:10194400E002002088000020DC020020800000204B
:10195400C0D5FF0038B54FF01003EFF3118583F3C2
:101964001288BFF36F8F084B1C68084B1B68E41A7E
:10197400FFF706FF85F31188BFF36F8F42F2D003A0
:101984002044B0FBF3F038BD880000208000002024
:1019940008B513498B6803F00C03042B1CD0082BE7
:1019A4001CD14A684B68496813F4800314BF0D487E
:1019B4000D48C1F3881118BF002302F03F02A1FBB8
:1019C4000001FEF7E5FB064B5B68C3F301430133FB
:1019D4005B00B0FBF3F008BD0248FCE70248FAE7FD
:1019E4000038024040787D010024F400002841D0F2
:1019F400214B1A681A6802F44042B2F5004F25D10F
:101A04001E4A90421DD81E4A1B68904201D80020ED
:101A140005E003F440430120B3F5804F24D0194A74
:101A2400136823F0070303431360136803F00703E9
:101A340083421CBF136803F00703C01A18BF0120B8
:101A440070471B68022003F44043E5E71B6803F476
:101A54004043B3F5804FDAD1084B984208D8084B7D
:101A640098424FF00000DAD9012838BF0120D6E7A8
:101A74000220D4E7012070470070004000879303E0
:101A840080C3C901003C024038B54FF01003EFF3A6
:101A9400118583F31288BFF36F8F064B9C6801F0A6
:101AA400CAFB85F31188BFF36F8F2046BDE8384029
:101AB400FEF740BFE8020020104B70B553F82040F9
:101AC400013053F82060A64200D870BDD4E9003537
:101AD40095B153B12846984738B10028B8BF404261
:101AE400EB68FF28A8BFFF201870EA68537843F01A
:101AF400010353700834E6E79847FBE77C3A000893
:101B040008B50A4B012203201A70FFF7D5FF00F035
:101B140087FC0420FFF7D0FF00F012F9FEF7AAFCBF
:101B2400034A137B23F00103137308BD1903002038
:101B34001001002008B50348034A0021121A01F0DD
:101B44007DFB08BD800000201C03002070B500232D
:101B540086B00122CDE90423194E1A4D01930F22B8
:101B6400CDE902321849142303FB005506EBC016D5
:101B740004464FF4C070154B00954FF4A07200FB5F
:101B84000411304600F094F8737B114AEE6023F0A0
:101B9400040373734FF4046304FB033313446B6053
:101BA4000C4B2C74BFF35B8F53E8001F013143E8E7
:101BB4000012002AF8D1BFF35B8F06B070BD00BFDE
:101BC40090000020E8020020800B00202F33000842
:101BD40040030020E402002080B50020A6B0FFF7F7
:101BE4006BFF2C4B83F308882B4D2C4E6B692C4FC9
:101BF40043F400736B610024F02385F82230EC7702
:101C04002C766C76AC7685F820406B6A43F4E0233E
:101C14006B62FEF767FEFEF795FF4FF0FF33AB6292
:101C2400EB62FFF765F8FEF7C1FF40F20113ADF870
:101C3400243006ABB360CDE91E44219401F0E6FAEA
:101C44000120FFF739FF0220164DFFF735FF00F0A2
:101C540099FA154B75610593012314490094CDE954
:101C640003434FF480623B46CDE90144284600F02B
:101C74001FF86A7B064622F0040228466A7301F0C4
:101C8400F3FA2046FFF762FF3A4631462846FEF74C
:101C94003DFF00BF800B002000ED00E0E8020020C3
:101CA400051B000810010020C63B0008000D0020A1
:101CB4002DE9F04385B00F46073210990173984619
:101CC400042100F1580322F00706C0E916334173DA
:101CD40000230F99836016F14005C0E906330446DA
:101CE4008173C37307F1400905D3404080F3118821
:101CF4004FF0040002DF3D4429462046FEF772FC03
:101D040007300E9B20F00700A066C4E918960293E2
:101D14000D9B01932D1A0C9B00932A46434639468A
:101D24002046FEF7C1FE00236365044B9B6803B1A4
:101D3400DB6EE366284605B0BDE8F083E8020020C8
:101D440070B5224C224D86B02646AE4204F13004D2
:101D54000AD300F0E7F91D4C1E4EAC4220D306B066
:101D6400BDE8704000F0F2B954F80C3C059354F807
:101D7400103C049354F8143C039354F8183C029315
:101D840054F81C3C019354F8203C009354E90A2372
:101D940054E90C01FFF78CFF54F8303C5E65D3E73F
:101DA400D4E90A23B3F1FF3F08BFB2F1FF3F05D0E6
:101DB40052EA0301206803D100F082F93034CCE701
:101DC4003146183000F04CFAF8E700BF98380008A4
:101DD40098380008D1320008C3897F2B12D80A4BE7
:101DE4001B6863B1094B90F90E201B689A4209DB0A
:101DF400437BDB0606D1064BC31A18BF012303F04D
:101E0400010070470023FAE7100300200C030020B0
:101E140090000020044BC01A044BC0105843044BDC
:101E240001221A54704700BF90010020ABAAAAAA4D
:101E34001A03002070B50E4B0E4C1E7C06EB4603B5
:101E440004EBC3040546204601F07BFA0A4B00224A
:101E540028469A55FFF7C0FF48B1084B08491A684D
:101E6400013A2046D317BDE8704000F0F9B970BDBF
:101E7400E8020020900100201A0300201003002033
:101E8400191E000838B50D4D2B4653F8184F9C42C7
:101E940000D004B9EC68AB6838B95A7BD20604D1D7
:101EA400A26912B9DA897F2A05D89C4202D0204659
:101EB400FFF7C0FF23466B6138BD00BFE802002076
:101EC40070B590F90D20437B002A014604DA03F033
:101ED4007F03437301F0B6F94B7B154A63F07F032C
:101EE40010464B7350F8183FD469834208BF00234F
:101EF40023B9C1E900042160D1610CE091F90E50CD
:101F040093F90E60B5420ED0AE420CDD5868C1E9BB
:101F14000030016059609068431A5842BDE870402F
:101F24005841FFF7AFBF9C42E3D01B68E0E700BF16
:101F3400E802002070B490F90D30427B002B29DBBD
:101F4400D30627D183692BBB134962F07F02427306
:101F54000A4652F8184F944218BF2346CC6923B955
:101F6400C0E900242060C8610CE090F90E5093F998
:101F74000E60B5420AD0AE4208DD5A68C0E90032AC
:101F84001060586070BC0020FFF77CBFA342E7D00C
:101F94001B68E4E770BC7047E80200202DE9F041BB
:101FA400002A437B0E460CBF102108211942044627
:101FB4000AD10B43DD0903F09F0211D142730829B2
:101FC40014D00120FFF75EFF1B4B9B68A3422CD16A
:101FD400EFF305834BBB3046BDE8F041FEF7C0BCD0
:101FE40003F01F03437301F02DF9E8E7A36813B16D
:101FF400204601F02FF904F1180001F0A2F904F1D0
:1020040058074FF00008A56DBD42DAD0002DD8D096
:10201400284601F01FF905F1180001F092F9C5F8FE
:1020240078802846FFF786FFEDE786F31188BFF333
:102034006F8FBDE8F08100BFE802002038B54FF093
:102044001003EFF3118583F31288BFF36F8F104BE6
:10205400104A9C681068A04206D1FFF7EBFE85F396
:102064001188BFF36F8F38BD00211B7C11600A4AB1
:10207400D35C002BF3D02046FFF7AEFE0028EED051
:10208400637BDB0602D12046FFF71AFF2046E4E714
:10209400E8020020080300201A03002049B9EFF3E6
:1020A400058030B9054B5A699B689A4201D0FEF706
:1020B40057BC81F31188BFF36F8F7047E80200208B
:1020C40010B54FF01002EFF3118482F31288BFF3BE
:1020D4006F8F427B510704D484F31188BFF36F8F51
:1020E40010BD22F004024273FFF724FF2146024888
:1020F400BDE81040FFF7D2BF1B030020034648B9D8
:10210400EFF3058232B9064A51699268914201D0CF
:10211400FEF726BC83F31188BFF36F8F704700BFAF
:10212400E80200204FF01003EFF3118183F31288CB
:10213400BFF36F8F044B9A68D37B013BD37381F356
:102144001188BFF36F8F7047E802002010B54FF07D
:102154001003EFF3118483F31288BFF36F8F084BDE
:102164009A68D37B0133D3730020FFF78BFE84F38B
:102174001188BFF36F8FBDE8104001F0ABB800BF0A
:10218400E8020020024B03F11802C3E9062270475B
:10219400E8020020014B9868704700BFE802002065
:1021A40008B50648064A0749121A01F049F8BDE87D
:1021B4000840054A0549064801F042B800000020DD
:1021C40080000020183C000800000000183C0008B3
:1021D40000000020034B1B680BB9FFF7BBBB0020BA
:1021E400704700BF1403002010B50E4B1C689C42BE
:1021F40004D1FFF7EFFF6FF0004010BDFFF7EAFFD7
:10220400002CF8D0D4E904321B1A62EBE072B3F16B
:10221400004F72F10001EEDA002AACBF184600202C
:10222400EBE700BF5000002030B570B10B4B5B688A
:1022340098420AD0036843B1D3E90421D0E90445A4
:10224400121941EB0501C3E90421D0E900321360FE
:102254005A600023C0E9003330BD00BF50000020A5
:10226400B3F1FF3F08BFB2F1FF3FF8B504461D4686
:1022740016465CD081604FF01003EFF3118783F3AF
:102284001288BFF36F8F013275F1FF3324DA2D49C1
:10229400D1E900206FF001039B1A4FF0FF3262EB8B
:1022A40000009E1B60EB0500012E70F1000301DAB3
:1022B40001260020C4E90460234ED6F800C07568E6
:1022C400B44508BF4FF0000CBCF1000F0DD1C4E9B8
:1022D40000652C6074601CE0FFF77CFF013645F15B
:1022E4000005361845EBE070E4E7DCE90420D4E9A6
:1022F4000431934271EB000E1ADAD21ADCF804307E
:1023040060EB0100CCE90420C4E900C31C60CCF8F4
:1023140004403368B34206D09C4204D1FFF764FF03
:102324000021FFF799FA87F31188BFF36F8FF8BD87
:102334009B1A61EB0001AC45C4E90431C7D0DCF859
:1023440000C0C1E7A8010020500000202DE9F84F8B
:102354004FF01003EFF3118C83F31288BFF36F8FE8
:10236400DFF8B0A0DFF8B0902C4FC9F80000DAF81D
:1023740000000024504508BF00200025D7E90021B3
:10238400D9F80030E04680B3D0E9046C4FEAE37E2C
:10239400B3427EEB0C0B05DAF61A6CEB0E04C0E9C3
:1023A400046422E0B21841EBE671C0E90445C7E9D0
:1023B4000021FFF739FF88F31188BFF36F8F83681B
:1023C40098474FF01003EFF3118883F31288BFF39B
:1023D4006F8FD9F80030DAF800009B1B5045C446D3
:1023E400C9F80030CAD1D7E900219A1841EBE37348
:1023F4000024C7E90023C9F80040FFF7F5FE214691
:10240400FFF72AFA88F31188BFF36F8FBDE8F84FFE
:10241400FFF714BE5000002014030020A801002080
:10242400014800F0EABA00BFCB3B00082DE9F04FA9
:102434008DB043680293837815469A07804640F12D
:102444000D8100240E78002E00F00A81252E0BD079
:102454004B1C03930134029B4146304698470028A5
:10246400C0F2F6800399EDE74E788B1C252E03937A
:10247400F0D00027B946BB46BBF11F0F38D8A6F1F0
:102484002003102B0AD8DFE803F02A0909300909D0
:10249400092109090928092D09091F00A6F130039A
:1024A400092B33D92A2E37D11BF0400F55F8043BA2
:1024B40040F08280002BA7BF4BF0200B9946C3F15C
:1024C40000094BF0280B01E04BF0010B039B13F8C0
:1024D400016B0393002ECFD130E04BF0020B4BF095
:1024E400040BF3E74BF0080BF0E74BF0100BEDE7B0
:1024F400BBF17F0F19D8A6F13003092BD2D81BF0FA
:10250400400F03D00A2101FB0737DFE70A2101FB53
:1025140009394BF0200BD9E72E2E06D11BF0400FC2
:1025240040F09E804BF0400BD0E76C2E31D02BD87E
:10253400682E36D06A2E3CD04C2E3AD0002F46F06E
:102544002003B8BF2BF04002A3F16501BCBF1FFA02
:1025540082FB0027022901D9612B2FD1073525F0F1
:102564000705DFF8ACA2083507271BF0080F66D073
:102574000AEB070B56465E4563D1A4EB0A0A06EB49
:102584000A02A9EB07096FE1742E9FD07A2E9DD021
:10259400D4E71BF0800F18BF4BF4007B4BF0800B8B
:1025A40094E71BF4807F18BF4BF4007B4BF4807BD3
:1025B4008CE74BF4207B89E71F4687E7A6F163018C
:1025C400122900F2F080DFE811F013004F00EE0052
:1025D400EE00EE00EE004F00EE00EE00EE00EE0026
:1025E400EE00FE00E900EE00EE001B00EE00AF007E
:1025F40055F8043B8DF8183001270DF1180AB4E79B
:1026040055F804AB834BBAF1000F08BF9A461BF090
:10261400400F14BF39464FF0FF31504600F0A7FE7B
:102624000746A2E7029B41462020984700280FDB7B
:10263400013EB742F6D34C44A41BB14698E74E463C
:10264400F7E716F8010B029B41469847002892DAF7
:1026540098F8023043F0040388F802304FF0FF3456
:1026640020460DB0BDE8F08F1BF0800F34D01BF472
:10267400007F2CD0073525F00705AA4669685AF86B
:10268400080B2BF010050029ADB237DA404261EB9C
:10269400410145F480650DF1180B0A235A4600F0F8
:1026A40072FEA0EB0B0301936B0662D5019B25F030
:1026B40001019F4289B240F3A180002E00F099806D
:1026C40015F0100240F09C80BB460D4623E0AA465C
:1026D4005AF8040BC117D4E7AA461BF4807F5AF8B2
:1026E400041B01D10846F5E71BF4007F15BF48B26F
:1026F40008B241F3C01141F3C031C2E750EA01030B
:10270400C9D11BF0400FC6D0002FC4D12BF0110249
:1027140095B2BB46019740F2064115EA01021CBF7F
:102724000BF1010B00222CE02BF010021FFA82FBAC
:102734000A231BF0800C49D01BF400711DBF073520
:1027440025F00705AA46AA461ABF5AF8080B696875
:102754005AF8040B50EA010545D12BF016051BF07D
:10276400400FADB242D0002F40D12BF0170295B2EA
:10277400019715F0100248D0019B002E42D103F1BD
:10278400010B29075AD4EB0706D5D9456FDD01990A
:10279400A9EB0B035F18CB465B4649E04BF0100BEB
:1027A40010237826C5E7782B04D1C6F1780343F0CB
:1027B4001003BEE7029B4146252098470028FFF6F8
:1027C40047AF023447E608230026B2E7AA461BF4C3
:1027D40080715AF8040BBDD01BF400711ABFC0B24B
:1027E400614680B2B6E72BF0060295B20DF1180BE4
:1027F40054E725F01105ADB2BB468CE70D46B8E7AA
:102804003B460D4603F1020BBBE7DDF804B082E75B
:102814000E3C0008073C0008CDE904324146029B07
:10282400202098470028FFF613AF049B059A013334
:102834009945F1DCA4EB0B01CC189B460AB3029B2F
:102844004146302098470028FFF602AF8EB9013484
:102854002744019B391B994224DC1D465DBB019A28
:10286400A9EB0B09224455461446914435E0019FD7
:1028740092E7023441463046029B98470028E7DA43
:10288400E6E640F206410D42E2D015F0020F14BF15
:102894002B20202015F4806F04F10104414618BF59
:1028A4002D20E9E7029B414630209847002804F197
:1028B4000104CEDACCE606AB013D4146585D029BED
:1028C40098470028CADAC3E6029B4146202098476D
:1028D400002804F10104FFF6BBAEA9EB0403002BAE
:1028E400F2DCBFE57047F0B403460A461979DB8889
:1028F40000681343DC028768066906D513F4402F89
:1029040003D0DA0748BF83F44023346801258D409F
:1029140023F48012DB074CBF2C43AC4334603B6888
:10292400F0BC184700EBC100408840087047F8B578
:102934000346FFF7F7FFB0FA80F0C0F11F0003EB86
:10294400800CCA00DCF81060171D0C4606328DB2EC
:1029540056B9012101FA00F0D9680143D960CCF8D5
:102964001040DD539D52F8BDF1000431585AD8533C
:1029740003EBC0009E52C5805D52F4E7043A2DE992
:10298400F041CC1D114424F0070421F007010E1B73
:10299400F708B7FA87F2C2F12405AD004FF000083A
:1029A4000735C2F12002ED0804604146A760C4F86F
:1029B4000C80920004F1100000F04AFD6B0043F01B
:1029C4000103638004EBC5027B1B5900A4F800805B
:1029D4005180A21924F83550A2F80280A35304EBC5
:1029E400C70329465A8842F001025A802046BDE8AE
:1029F400F041FFF79CBF002070470FB407B504A94E
:102A040051F8040B0191FDF783FD03B05DF804EB6D
:102A140004B070477047FFF737B801460068FFF706
:102A240033B800210120FFF7F6BF202809D9B0F1FF
:102A3400004F08D80138B0FA80F0C0F11F00400000
:102A44007047082070473E20704708B5FEF700FA2B
:102A5400002008BD08B5062201210020FEF744FA33
:102A6400002211460620FDF7E3FF01210846072254
:102A7400FEF73AFA002211460720FDF7D9FF082293
:102A840001210220FEF730FA002211460820FDF74A
:102A9400CFFF092201210320FEF726FA0022114666
:102AA4000920FDF7C5FF0A2201210420FEF71CFAC4
:102AB400002211460A20FDF7BBFF05210846172214
:102AC400FEF712FA002211461720FDF7B1FF282263
:102AD40006210A20FEF708FA002211462820FDF7F5
:102AE400A7FF002008BD0B68A3F13002782A9FBF1E
:102AF40003F1804303F50E3349681A689DBF0A4306
:102B040000201A606FF0850070470B68A3F1300253
:102B1400782A9FBF03F1804303F50E3349681A688E
:102B24009DBF8A4300201A606FF0850070470B68D0
:102B3400A3F13002782A0AD803F1804303F50E3357
:102B44001A684B68934314BF012002207047012B7D
:102B540005D0033B022B8CBF0120022070470220CA
:102B6400704710B50B68012B02D0033B022B21D810
:102B74004A68FF2A1CD0D3B203F1804303F50E3315
:102B8400C2F342341868C2F3042204FA02F220EABF
:102B940002021A604968CBB203F1804303F50E3395
:102BA400C1F302421868C1F304218A4002431A6047
:102BB400002010BD6FF08500FBE743685B681B696C
:102BC4000B600020704743685B68586942400A40C4
:102BD40042405A610020704743685B680020996155
:102BE400704743685B680904996100207047436833
:102BF4005A6853694B4053610020704710B503690C
:102C04009868F8B1884219D1DC6808689860A142D4
:102C140000D1D860002008602AB19A680A60DA6896
:102C2400996002B9D960002010E0814206D1086899
:102C34002060D8688142EDD1DC60EBE7044600688F
:102C44000028F2D1002AE8D16FF0150010BDF0B5CC
:102C540044680120676888401E46C2F3801327EA4F
:102C640000078B403B43636090FAA0F7B7FA87F7FD
:102C7400D4F808C04FF0030E7F000EFA07F72CEAD1
:102C8400070C90FAA0F7B7FA87F7C2F3C1137F00D5
:102C9400BB4043EA0C03A36090FAA0F3B3FA83F3B6
:102CA400E7685B000EFA03F327EA030790FAA0F340
:102CB400B3FA83F302F030055B00C2F341229A4079
:102CC4003A43202DE26016D107292BDC90FAA0F3B9
:102CD400226A2BB3B3FA83F39B000F2101FA03F3A7
:102CE40022EA030290FAA0F3B3FA83F39B0006FAF4
:102CF40003F31343236290FAA0F3B3FA83F3226835
:102D040090FAA0F05B000321B0FA80F02D0901FADB
:102D140003F3400022EA030385401D432560F0BD10
:102D24002B46D9E7030A616A93FAA3F282B1B2FA95
:102D340082F292000F2793FAA3F3B3FA83F307FA0C
:102D440002F29B0021EA02029E4016436662D2E729
:102D54002A46EEE738B5044690030D46134617D5C8
:102D640091070ED55A072ED55022D8060BD542F41A
:102D7400007219031AD5616801234968AB408B615D
:102D84000DE01022F1E79906F3D542F48062F0E7F2
:102D9400DA0313D5D80613D4C3F340139A02606838
:102DA40000232946FFF753FF002038BD5B03F6D507
:102DB4000121A9402046FFF714FFF0E73022EEE797
:102DC4004FF40072EBE76FF08500EEE770B50B4649
:102DD400896821B101255E680C68854001B970BD20
:102DE4008A682A4002D04B68304698471CB1236851
:102DF40021461C46F2E72346FAE7F8B51F46044687
:102E040040680E461546FFF722FF112F07D1012116
:102E14002B0501FA06F104D563685B68996100200B
:102E2400F8BD2046FFF7DDFEF9E730B5036813600F
:102E34000579046804EBC504A34202D36FF00100D2
:102E440030BD5C798C4201D00833F0E70020F7E70D
:102E54004368C1F34B101B6801F01F01C0580123E4
:102E64008B40034214BF01230023137000207047DA
:102E740010B54368C1F34B101A6801F01F01845860
:102E840001238B4023438350002010BD10B54368B9
:102E9400C1F34B14186801F01F01235801228A4022
:102EA40023EA02032350002010BD38B504460D4622
:102EB400FFF7DEFF29462046FFF7E8FF002038BD74
:102EC40082B003680193019B43680193019B02B0A4
:102ED400704708B541680B681A681868C007186815
:102EE400C2F3C00248BF42F002028007186848BF1C
:102EF40042F004024007186848BF42F02002C005AF
:102F040042BF6FF4807042F008021860D00702D507
:102F14000868FFF7D5FF930702D50868FFF7D0FFCD
:102F2400500702D50868FFF7CBFF930602D508685F
:102F3400FFF7C6FF104608BD43681A6802F10C0388
:102F440053E8003F43F0400302F10C0040E8003135
:102F54000029F3D1704743681A6802F10C0353E85F
:102F6400003F23F0400302F10C0040E80031002947
:102F7400F3D1704743681B68186810F080001CBFC9
:102F8400D868C0F38010704743681B681868C0F3A2
:102F94008010704743681A6802F10C0353E8003F3D
:102FA40043F0200302F10C0040E800310029F3D182
:102FB400704743681A6802F10C0353E8003F23F09A
:102FC400200302F10C0040E800310029F3D17047DE
:102FD40043681B681868C0F34010704743681B6857
:102FE4001A68910602D5DA68920607D4186810F0B8
:102FF400400004D0D868C0F38010704701207047A7
:10300400012070470369C3E902127047026993689B
:103014000BB1D1681847704708B500222520114626
:10302400FDF706FDBDE808402520FDF7F3BC37B5E4
:103034000369446818688368DB680D46E168F3B186
:1030440001AA984700281ADB22680198D36819213D
:1030540023F40043D360A0FB0101AA00AB0FFDF7EA
:1030640097F86422B0FBF2F102FB11031B01246800
:103074003233B3FBF2F303EB01139BB2A36003B04F
:1030840030BD10B54068026813681B06FCD54FF0CC
:103094001002EFF3118382F31288BFF36F8F02687B
:1030A4001468240604D483F31188BFF36F8FEAE70E
:1030B400516083F31188BFF36F8F10BD08B5436867
:1030C400186803681A0701D5FFF7FAFE03689B0620
:1030D40043BF43680B7000204FF0FF3008BDF8B5C4
:1030E40046683368DC68DB6814F4805403D013F456
:1030F400C06F13D00024E3B29A42184603DD35684A
:103104002F68BF0600D4F8BD6868C85430680368E7
:103114001B0701D5FFF7D4FE0134ECE76FF08500FF
:10312400F1E7F0B546683368DC68D868E40402D592
:1031340010F4C06F20D0186810F0800010D04FF049
:103144001003EFF3118783F31288BFF36F8F00230B
:10315400DCB2A242204604DC87F31188BFF36F8FF0
:10316400F0BD3568D5F800C01CF0800F03F10103F1
:10317400F2D0085D6860EBE76FF08500F0E7036963
:103184005B681B680B6043681B68DB6803F4C063FF
:10319400B3F5806F2FD0A3F5C06CDCF1000343EBD3
:1031A4000C030B7143681B681B6903F44053B3F5AC
:1031B400805F22D0B3F5405F21D0002B0CBF0123E8
:1031C40003234B7143681B68DA68DB68D20403F499
:1031D400C06316D5002B14BF032304238B714368EB
:1031E4001B685B6903F44073A3F540725342534177
:1031F400CB71002070470223D3E70023E1E70223C9
:10320400DFE7002B14BF02230323E7E7704740B135
:10321400C368587810F001001EBF1878B0FA80F027
:10322400400970474FF01002EFF3118382F31288C4
:10323400BFF36F8FFEE708B5FFF7F4FF00F008B99E
:1032440000F0F8B8D0E9003213605A600023C0E9F6
:103254000033704708B5FFF7F5FF437B23F0020303
:1032640043730023836008BD10B54FF01003EFF3E0
:10327400118483F31288BFF36F8FFEF75BFE84F330
:103284001188BFF36F8F10BD38B504464FF010039B
:10329400EFF3118583F31288BFF36F8F437B13F031
:1032A400280F0BD183680BB1FFF7D4FF637B51B9AF
:1032B40003F0FB0363732046FEF73CFE85F311889D
:1032C400BFF36F8F38BD03F0EB03F3E70121183828
:1032D400FFF7DABF4FF01003EFF3118083F3128886
:1032E400BFF36F8FFEF70ABF4FF01002EFF31181A7
:1032F40082F31288BFF36F8F027BD2070AD581F362
:103304001188BFF36F8F404080F311884FF00400A1
:1033140002DF7047437B1B0704D581F31188BFF399
:103324006F8F70470122FEF739BE08B54FF01002C7
:10333400EFF3118382F31288BFF36F8FFDF708FC5C
:10334400F4E710B54FF01002EFF3118482F3128802
:10335400BFF36F8F03683BB1FEF766FF002084F371
:103364001188BFF36F8F10BD6FF01500F7E710B52C
:10337400024601448A42134603D01C780132002CD1
:10338400F8D1181A10BDF0B5C3F137070446FFB2DF
:1033940003F01F031046082BE6B233D0102B3ED0A7
:1033A4006508A40844EA817445EAC1752D194FEAF9
:1033B400910242EB5102290941EA02716D1842EB74
:1033C4001212290A41EA02616D1842EB1222290CF9
:1033D40041EA02416D1842EB1242AD1842F100027B
:1033E400EC0844EA4274D10804EB8402A6EB4205DB
:1033F400EDB2092D0CD90134A5F10A0541F1000102
:10340400EDB212E0E40844EA417406F00705C90885
:10341400303554EA010200F8015BBCD1F0BD240947
:1034240044EA017406F00F050909092D84BFED195A
:10343400EDB2EDE70A44914200F1FF3300D1704749
:1034440010B511F8014B03F8014F9142F9D110BDA9
:1034540002440346934200D1704703F8011BF9E785
:0C3464000148006870470000BC01002017
:0834700058CDFF7F01000000B0
:1034780085050008000000007110000800350008EC
:10348800AD05000800000000000000001435000829
:1034980029120008C835000829120008A0350008BC
:1034A800592A00082835000829120008B4350008F0
:1034B800291200088C350008291200087835000800
:1034C8002912000864350008291200085035000840
:1034D800291200083C350008D1160008DC35000820
:1034E800D911000800000000D117000800000000F2
:0834F8007D0E00080000000039
:10350000183B000800000000180000206A0000209E
:1035100000000000953B0008CC390008D0390008B5
:103520007C00002000000000FA3A000800000000C3
:103530000000000068000020DC010020253B00089E
:10354000DC3800087C3900086C0000205C02002098
:10355000333B0008F03800087C3900086E0000207A
:103560006C020020413B0008043900087C39000847
:10357000700000207C0200204F3B00081839000832
:103580007C390008720000208C0200205D3B00089E
:103590002C3900087C390008740000209C020020AF
:1035A0006B3B0008403900087C3900087600002099
:1035B000AC020020793B0008543900087C3900082F
:1035C00078000020BC020020873B00086839000812
:1035D0007C3900087A000020CC020020A63B0008BD
:1035E000E0390008303A00087E0000203400002056
:1035F00000000000272A000800000000272A000819
:1036000000000000272A000800000000272A000808
:1036100000000000272A000800000000272A0008F8
:10362000F83A0008A10E0008F63A0008A10E0008BA
:10363000F43A0008A10E0008F23A0008A10E0008B2
:10364000F03A0008A10E000800000000272A000838
:1036500000000000272A000800000000272A0008B8
:1036600000000000272A000800000000272A0008A8
:1036700000000000272A000800000000272A000898
:1036800000000000272A000800000000272A000888
:1036900000000000272A000800000000272A000878
:1036A00000000000272A0008EE3A0008A10E0008DA
:1036B00000000000272A000800000000272A000858
:1036C00000000000272A000800000000272A000848
:1036D00000000000272A000800000000272A000838
:1036E00000000000272A000800000000272A000828
:1036F00000000000272A000800000000272A000818
:1037000000000000272A000800000000272A000807
:1037100000000000272A0008DC35000811300008EE
:1037200000000000272A000800000000272A0008E7
:10373000EC3A0008A10E000800000000272A00084B
:1037400000000000272A000800000000272A0008C7
:1037500000000000272A000800000000272A0008B7
:1037600000000000272A000800000000272A0008A7
:1037700000000000272A000800000000272A000897
:1037800000000000272A000800000000272A000887
:1037900000000000272A000800000000272A000877
:1037A00000000000272A000800000000272A000867
:1037B00000000000272A000800000000272A000857
:1037C00000000000272A000800000000272A000847
:1037D00000000000272A000800000000272A000837
:1037E00000000000272A000800000000272A000827
:1037F00000000000272A000800000000272A000817
:1038000000000000272A000800000000272A000806
:1038100000000000272A000800000000272A0008F6
:1038200000000000272A000800000000272A0008E6
:1038300000000000272A000800000000272A0008D6
:1038400000000000272A000800000000272A0008C6
:1038500000000000272A000800000000272A0008B6
:1038600000000000272A000800000000272A0008A6
:1038700000000000272A000800000000272A000896
:1038800000000000272A000800000000272A000886
:0838900000000000272A0008D7
:103898004400000000400000C83500080000110086
:1038A800A03500080D000100000000200000000005
:1038B80000000B0602000000C438000800000008E1
:1038C800DD3A00082200020700000020E53A00085F
:1038D8001E000B11FFFF0000001C02400700000043
:1038E8003000000080000000FFFF000000180240C8
:1038F800060000003000000040000000FFFF00004C
:103908000014024005000000300000002000000004
:10391800FFFF00000010024004000000300000001B
:1039280010000000FFFF0000000C02400300000030
:103938003000000008000000FFFF000000080240FF
:10394800020000003000000004000000FFFF00003B
:1039580000040240010000003000000002000000E6
:10396800FFFF0000000002400000000030000000DF
:1039780001000000592D0008BF2B0008CB2B0008C0
:10398800DD2B0008E72B0008F32B0008591200086C
:10399800012C000800000000C8350008B4350008F4
:1039A800A03500088C350008783500086435000813
:1039B800503500083C3500080000000000000000F9
:1039C8000000000000380240552E0008752E00083F
:1039D800912E0008AF2E0008001001401435000891
:1039E80084040000083A00080100000000000000FC
:1039F8000000000000000000103A00081D30000818
:103A08004400000010000000183A000801000000FF
:103A1800203A000802000000270100000002000010
:103A28004701000000000000C1300008873000088E
:103A3800D72E0008911500088331000827310008A7
:103A4800E33000083D2F00085B2F0008792F00089D
:103A5800992F0008B72F00088D2F0008D52F0008D0
:103A6800E11300083D140008E12F000805300008A4
:103A7800093000087834000878340008F034000869
:103A8800F834000800350008003500080010000070
:103A980000304572726F723A204C45442064657656
:103AA800696365206973206E6F742072656164793B
:103AB8000A004572726F723A20427574746F6E20F4
:103AC800646576696365206973206E6F742072651A
:103AD8006164790A00464C4153485F3000535241B3
:103AE8004D5F30000A0605050401030102010101CA
:103AF8000001696E746572727570742D636F6E74EF
:103B0800726F6C6C65724034303031336330300022
:103B18007263634034303032333830300067706954
:103B28006F403430303231633030006770696F4035
:103B38003430303231383030006770696F4034309B
:103B4800303231343030006770696F403430303291
:103B580031303030006770696F4034303032306354
:103B68003030006770696F40343030323038303070
:103B7800006770696F40343030323034303000675D
:103B880070696F40343030323030303000726573D5
:103B980065742D636F6E74726F6C6C6572007365FB
:103BA8007269616C4034303031313030300000009F
:103BB80000000000000001020304060708096D6107
:103BC800696E002A2A2A20426F6F74696E67205A2C
:103BD8006570687972204F53206275696C6420762D
:103BE800332E362E302D7263332D382D67613438DD
:103BF800633935386338666238202A2A2A0A002849
:103C08006E756C6C29002A666C6F61742A0000005E
:103C1800FB290008E1050008000000004F2A000801
:103C28000000000000000000EB2A00080F2B00082D
:103C380000000000E50F0008332B0008000000001A
:103C4800672B00080000000044000020000000006E
:103C58000000000000C20100000103000024F4007D
:103C68005000002050000020FFFFFFFFFFFFFFFF74
:083C7800FFFFFFFFFFFFFFFF4C
:103C80000000000000000000000000000000000034
:083C900000000000000000002C
:043C980015E015E03E
:040000050800090DD9
:00000001FF
